:100000000C942A000C9447000C9447000C94470071
:100010000C9447000C9447000C9447000C94470044
:100020000C9447000C9447000C9405030C94470073
:100030000C9447000C9447000C9447000C94470024
:100040000C9447000C9447000C9447000C94470014
:100050000C94470011241FBECFE5D8E0DEBFCDBF12
:1000600010E0A0E6B0E0E2E4FFE002C005900D92EF
:10007000AE3CB107D9F710E0AEECB0E001C01D9284
:10008000A53EB107E1F70E947D010C949F070C94F7
:10009000000090E0FC01E752FF4F208130E08152E8
:1000A0009F4FFC018081281B310981E021303105FF
:1000B00009F080E0089527E08037920769F024E78F
:1000C00037E08217930751F02C5F3F4F48E024330D
:1000D0003407B9F780E0089581E0089581E008953C
:1000E0002DB73EB72A5030400FB6F8943EBF0FBE32
:1000F0002DBFEDB7FEB731968BEA90E0ADB7BEB736
:1001000012969C938E93119780E690E0938382835E
:1001100080918E008483158280918D008683178262
:1001200080918C00808711860E94BE04EDB7FEB7D7
:1001300031968CEB90E0ADB7BEB712969C938E9340
:10014000119787E790E09383828380918F00848367
:100150001582809190008683178280919100909102
:100160009200918780870E94BE048091D100EDB7F4
:10017000FEB73A960FB6F894FEBF0FBEEDBF8823C8
:1001800069F09091CE00983348F0E3E08E9FF00143
:100190001124E555FF4F8FE5858386838091D2003A
:1001A000882391F19091CE00983370F1982F91505F
:1001B0009230E0F490E0AC014F5F5F4F2CEB30E009
:1001C000FA01EE0FFF1F4E0F5F1FF901E40FF51F3D
:1001D0006FE56083AC01440F551F840F951F280FF6
:1001E000391FD90114966C9314970EC0833061F4B3
:1001F0008FE58093C8008093C9008093CA008093E4
:10020000CB0084E08093D6000E94750480E060E01B
:100210000E9444048BEA90E00E94D30380E061E0F6
:100220000E9444048CEB90E00E94D30308958091D7
:10023000CE008F5F8093CE00843609F053C01092B9
:10024000CE0080918C008F5F80938C008C3309F0FE
:1002500049C010928C0080918D008F5F80938D003B
:100260008C3309F03FC010928D0080918E008F5F1B
:1002700080938E008831B1F510928E0030919000FD
:1002800020918F008091CF0090E0FC01EE0FFF1FC6
:100290008E0F9F1FFC01EE0FFF1FEE0FFF1FED568D
:1002A000FF4FE30FF11D319780818217C1F481E088
:1002B00080938F003F5F309390003D3099F480939E
:1002C00090008091910090919200019690939200FD
:1002D000809391000E945B008093CF0008952F5F70
:1002E00020938F00089583B78D6083BF89B78260A4
:1002F00089BF8BE98CBF12BE08952F923F924F9217
:100300005F926F927F928F929F92AF92BF92CF92A5
:10031000DF92EF92FF920F931F93CF93DF9360EAE8
:1003200076E881E090E040E00E94910381E00E9445
:1003300056040E94730178948091910090919200EC
:100340000E945B008093CF000E9470000FED10E0D0
:10035000C801B02EA92EEE24FF24CC24DD246894FD
:10036000C2F80F2EF7E12F2EF02D0F2EFBE33F2EBC
:10037000F02D0F2EF3E98F2EF0E09F2EF02D0F2E93
:10038000F9ED4F2EF0E05F2EF02D0F2EF6E06F2EE0
:100390007724F02D600E711E1092D800E801EB2D2D
:1003A000FA2DC70120B330E0082E02C035952795FD
:1003B0000A94E2F72170219301968093D800863049
:1003C000910581F780E00E944900882349F08091DF
:1003D000D10090E00196B6010E9497048093D1006D
:1003E00083E00E944900882349F08091D20090E088
:1003F0000196B6010E9497048093D2008091D100AB
:100400008130E9F40E944900882351F080918E00E8
:10041000873119F410928E0003C08F5F80938E0095
:1004200082E00E944900882351F080918E00882349
:1004300019F420928E0003C0815080938E00809129
:10044000D1008230F1F481E00E944900882351F00C
:1004500080918D008B3319F410928D0003C08F5F53
:1004600080938D0082E00E944900882351F08091A2
:100470008D00882319F430928D0003C08150809341
:100480008D008091D1008330F1F481E00E94490019
:10049000882351F080918C008B3319F410928C00DA
:1004A00003C08F5F80938C0082E00E944900882304
:1004B00051F080918C00882319F430928C0003C095
:1004C000815080938C008091D200813009F048C027
:1004D00084E00E944900882301F140918F008091BF
:1004E000CF0090E0509190009C01220F331F820FAB
:1004F000931FFC01EE0FFF1FEE0FFF1FE80DF91D0C
:10050000E50FF11D31978081841721F481E08093FC
:100510008F0003C04F5F40938F0085E00E94490029
:100520008823F1F080918F008130B9F48091CF0061
:1005300090E020919000FC01EE0FFF1FE80FF91FE3
:10054000EE0FFF1FEE0FFF1FE80DF91DE20FF11D6B
:100550003197808180938F0003C0815080938F00FA
:100560008091D2008230F9F484E00E94490088230F
:1005700051F0809190008F5F809390008D3019F43E
:1005800081E08093900085E00E944900882359F023
:1005900080919000813021F48CE08093900003C022
:1005A0008150809390008091D200833061F584E087
:1005B0000E944900882369F08091910090919200F7
:1005C000019690939200809391000E945B0080932B
:1005D000CF0085E00E9449008823A9F08091910016
:1005E00090919200019790939200809391000E94C5
:1005F0005B008093CF0007C089918193C615D70512
:1006000009F4CACEF9CFF201F7CF1F920F920FB6BD
:100610000F9211242F933F934F935F936F937F9388
:100620008F939F93AF93BF93EF93FF930E94170114
:100630008091CE0065E00E948B04992311F40E9402
:100640007000FF91EF91BF91AF919F918F917F913A
:100650006F915F914F913F912F910F900FBE0F902F
:100660001F90189584EA86BF06B607FEFDCF089551
:1006700083B984E886BF06B607FEFDCF0895880FCC
:100680000E943803089584E986BF0895FF920F936E
:100690001F93182F062F0E94320387E20E943F0308
:1006A000F12EF694F694F694F6941F70002341F41C
:1006B0008091D5008E7F8093D5000E94380307C0BB
:1006C0008091D50081608093D5000E94380300910D
:1006D000D5000460802F0E943803FF0CFF0CFF0C34
:1006E000FF0C0F700F29802F0E9438030B7F802F83
:1006F0000E9438030460802F0E9438030F70129507
:10070000107F102B812F0E943803812F8B7F8093C5
:10071000D5000E9438030E9443031F910F91FF9060
:1007200008951F93142F85B3836085BB81B18C7F9F
:1007300081B982E180B90E94320387E20E943F03BF
:100740008FEF96E7A1E081509040A040E1F700C014
:10075000000084E00E94380384E20E94380380E2B3
:100760008093D5000E943803AFEDB5E11197F1F702
:1007700000C000000E94430388E260E00E9446033C
:100780008FED95E10197F1F700C00000812F8C609B
:1007900060E00E944603AFEDB5E11197F1F700C0AC
:1007A00000001F910895CF93DF93EC018881882387
:1007B00039F0219661E00E94460389918823D1F7A0
:1007C000DF91CF910895EF92FF920F931F93DF93E4
:1007D000CF9300D000D00F92CDB7DEB77B01FE01E2
:1007E000319625E0DF011D922A95E9F7009761F027
:1007F000FE0136962AE030E0B9010E949704829308
:10080000862F972F0097C1F7BFEFEB16BFEFFB06C0
:1008100069F42981222379F4FE01329600E010E088
:100820000F5F1F4F21912223D9F307C005E010E08D
:100830000E191F0902C000E010E0992324F48DE294
:1008400061E00E9446030530110594F47E0108948E
:10085000E11CF11CE00EF11EF70181917F01805D2A
:1008600061E00E9446030F5F1F4F05301105A4F39E
:100870000F900F900F900F900F90CF91DF911F91DD
:100880000F91FF90EF900895843178F4623031F049
:10089000633031F0613029F4806403C08C5E01C0A4
:1008A0008C5A806860E00E944603089581708093AE
:1008B000D400882349F0880F880F880F9091D500C5
:1008C000892B8093D50005C08091D50087708093D7
:1008D000D5000E94320387E20E943F038091D50039
:1008E0000E9438030E944303089581E060E00E9463
:1008F00046038FED95E10197F1F700C000000895E0
:1009000082E060E00E9446038FED95E10197F1F7E8
:1009100000C000000895991B79E004C0991F961744
:1009200008F0961B881F7A95C9F78095089597FB64
:10093000092E07260AD077FD04D00CD006D000205F
:100940001AF4709561957F4F0895F6F7909581950B
:100950009F4F0895AA1BBB1B51E107C0AA1FBB1FD5
:10096000A617B70710F0A61BB70B881F991F5A953B
:10097000A9F780959095BC01CD010895AEE0B0E057
:10098000E4ECF4E00C9476070D891E8986E08C83F4
:100990001A8309838FEF9FE79E838D839E01275ED5
:1009A0003F4FCE0101966F89788DA9010E94E10425
:1009B000EF81F885E00FF11F10822E96E4E00C9491
:1009C0009207ACE0B0E0E7EEF4E00C9468076C014D
:1009D0001B018A01FC0117821682838181FFD1C12C
:1009E0002E010894411C511CF6019381F10193FDE5
:1009F000859193FF81911F01882309F4BEC185323F
:100A000039F493FD859193FF81911F01853229F47B
:100A100090E0B6010E94DE06E7CFEE24FF2420E03E
:100A20002032B0F48B3269F08C3228F4803251F0ED
:100A3000833271F40BC08D3239F0803349F4216078
:100A40002CC02260246029C0286027C0206125C0F6
:100A500027FD2CC0382F30533A3098F426FF08C0B9
:100A60008E2D880FE82EEE0CEE0CE80EE30E15C06E
:100A70008F2D880FF82EFF0CFF0CF80EF30E20625E
:100A80000CC08E3221F426FD78C1206406C08C365D
:100A900011F4206802C0883649F4F10193FD859174
:100AA00093FF81911F01882309F0BACF982F9554A5
:100AB000933018F09052933028F40C5F1F4FFFE3EF
:100AC000F9830DC0833631F0833771F0833509F037
:100AD00060C022C0F801808189830E5F1F4F4201F0
:100AE00071E0A72EB12C16C062E0662E712C600E4C
:100AF000711EF8018080918026FF03C06E2D70E08A
:100B000002C06FEF7FEFC4012C870E94D3065C0107
:100B100083012C852F7717C052E0652E712C600E53
:100B2000711EF8018080918026FF03C06E2D70E059
:100B300002C06FEF7FEFC4012C870E94C8065C01E2
:100B40002C852068830123FD20C008C080E290E04E
:100B5000B6012C870E94DE06FA942C858F2D90E03A
:100B6000A816B90698F311C0F40127FD859127FF57
:100B700081914F0190E0B6012C870E94DE062C8502
:100B8000F110FA940894A108B108A114B10461F716
:100B9000F1C0843611F0893649F527FF08C0F80105
:100BA00060817181828193810C5F1F4F09C0F801C0
:100BB00060817181882777FD8095982F0E5F1F4F88
:100BC0004FE6B42EB22297FF09C09095809570959C
:100BD00061957F4F8F4F9F4FF0E8BF2AA2012AE017
:100BE00030E00E940A07782E741845C0853731F42A
:100BF0003FEEB32EB2222AE030E025C099EFB92EA5
:100C0000B2228F36C1F0803720F4883509F0B5C0A4
:100C10000DC0803721F0883709F0AFC002C020E155
:100C2000B22AB4FE0BC084E0B82A08C0B4FE09C0E2
:100C3000E6E0BE2A06C028E030E005C020E130E052
:100C400002C020E132E0B7FE08C0F8016081718186
:100C5000828193810C5F1F4F07C0F8016081718111
:100C600080E090E00E5F1F4FA2010E940A07782EDD
:100C70007418FFE7BF22B6FE0BC02EEFB2227E141F
:100C800038F4B4FE07C0B2FC05C08FEEB82202C033
:100C9000A72C01C0AE2C8B2D90E0B4FE0DC0FE0140
:100CA000E70DF11D2081203319F4E9EEBE2209C0C1
:100CB000A394B2FE06C004C086789070009709F035
:100CC000A3948B2C9924B3FC14C0B0FE0FC0AF14B6
:100CD00028F4E72CEF0CEA18AF2C08C0E72C06C06C
:100CE00080E290E0B6010E94DE06A394AF14C0F348
:100CF00004C0AF1410F4FA1801C0FF2484FE0FC022
:100D000080E390E0B6010E94DE0682FE1FC081FEF5
:100D100003C088E590E010C088E790E00DC0C401F2
:100D200086789070009791F081FC02C080E201C04B
:100D30008BE2B7FC8DE290E0B6010E94DE0606C0B1
:100D400080E390E0B6010E94DE06EA947E14C0F3D0
:100D50007A94F201E70DF11D808190E0B6010E94C6
:100D6000DE067720A9F706C080E290E0B6010E9477
:100D7000DE06FA94FF20C1F737CEF60126813781CF
:100D800002C02FEF3FEFC9012C96E2E10C948407DB
:100D9000FC010590615070400110D8F78095909546
:100DA0008E0F9F1F0895FC0161507040019001104B
:100DB000D8F7809590958E0F9F1F08950F931F93DE
:100DC000CF93DF938C01EB018B8181FF1BC082FFEE
:100DD0000DC02E813F818C819D812817390764F4D5
:100DE000E881F9810193F983E88306C0E885F985F4
:100DF000802F0995009731F48E819F8101969F8302
:100E00008E8302C00FEF1FEFC801DF91CF911F91BA
:100E10000F910895FA01AA27283051F1203181F16C
:100E2000E8946F936E7F6E5F7F4F8F4F9F4FAF4FF2
:100E3000B1E03ED0B4E03CD0670F781F891F9A1F05
:100E4000A11D680F791F8A1F911DA11D6A0F711DB9
:100E5000811D911DA11D20D009F468943F912AE0C5
:100E6000269F11243019305D3193DEF6CF010895AD
:100E7000462F4770405D4193B3E00FD0C9F7F6CFDE
:100E8000462F4F70405D4A3318F0495D31FD4052A6
:100E9000419302D0A9F7EACFB4E0A695979587953C
:100EA00077956795BA95C9F700976105710508951B
:100EB0009B01AC010A2E06945795479537952795C7
:100EC000BA95C9F7620F731F841F951FA01D08955F
:100ED0002F923F924F925F926F927F928F929F924A
:100EE000AF92BF92CF92DF92EF92FF920F931F9338
:100EF000CF93DF93CDB7DEB7CA1BDB0B0FB6F894E9
:100F0000DEBF0FBECDBF09942A88398848885F8428
:100F10006E847D848C849B84AA84B984C884DF8099
:100F2000EE80FD800C811B81AA81B981CE0FD11D7D
:100F30000FB6F894DEBF0FBECDBFED010895F89453
:020F4000FFCFE1
:100F420054696D653A202020253032643A253032CA
:100F5200643A2530326400446174653A20253032A7
:100F6200643A253032643A2530346400393B171C28
:100F720002D1071F1C1F1E1F1E1F1F1E1F1E1F1F09
:100F82001D1F1E1F1E1F1F1E1F1E1F54696D653A47
:100F920020202078783A78783A787800446174652D
:0E0FA2003A2064643A6D6D3A797979790000ED
:00000001FF
