:100000000C942A000C9447000C9447000C94470071
:100010000C9447000C9447000C9447000C94470044
:100020000C9447000C9447000C941D030C9447005B
:100030000C9447000C9447000C9447000C94470024
:100040000C9447000C9447000C9447000C94470014
:100050000C94470011241FBECFE5D8E0DEBFCDBF12
:1000600010E0A0E6B0E0EEEBFEE002C005900D92DD
:10007000AE3CB107D9F710E0AEECB0E001C01D9284
:10008000A43EB107E1F70E948F010C945D070C9428
:10009000000090E0FC01E852FF4F208130E08252E6
:1000A0009F4FFC018081281B310981E021303105FF
:1000B00009F080E0089527E08037920769F024E78F
:1000C00037E08217930751F02C5F3F4F48E024330D
:1000D0003407B9F780E0089581E0089581E008953C
:1000E0008DB79EB70A970FB6F8949EBF0FBE8DBF0F
:1000F000EDB7FEB731968BEA90E0ADB7BEB712967A
:100100009C938E93119780E690E0938382838091F5
:100110008E008483158280918D0086831782809162
:100120008C00808711860E947C04EDB7FEB7319663
:100130008CEB90E0ADB7BEB712969C938E9311975F
:1001400087E790E09383828380918F008483158278
:100150008091900086831782809191009091920007
:10016000918780870E947C042091D200EDB7FEB772
:100170003A960FB6F894FEBF0FBEEDBF222389F06A
:100180008091CF009091D000F2E087329F0748F035
:10019000E3E02E9FF0011124E555FF4F8FE58583A5
:1001A00086832091D3002223B9F18091CF009091D2
:1001B000D00032E08732930778F1822F815082306D
:1001C000E8F4822F90E0AC014F5F5F4F2CEB30E002
:1001D000FA01EE0FFF1F4E0F5F1FF901E40FF51F2D
:1001E0006FE56083AC01440F551F840F951F280FE6
:1001F000391FD90114966C9314970EC0233061F403
:100200008FE58093C8008093C9008093CA008093D3
:10021000CB0084E08093D50081E060E00E94700311
:1002200080E060E00E9443048BEA90E00E94D203E9
:1002300080E061E00E9443048CEB90E00E94D203D6
:1002400008958091CF009091D00001969093D000B6
:100250008093CF0023E0883E920709F055C01092AA
:10026000D0001092CF0080918C008F5F80938C0023
:100270008C3309F049C010928C0080918D008F5F03
:1002800080938D008C3309F03FC010928D008091D7
:100290008E008F5F80938E008831B1F510928E00B2
:1002A0003091900020918F008091CE0090E0FC0171
:1002B000EE0FFF1F8E0F9F1FFC01EE0FFF1FEE0FB3
:1002C000FF1FED56FF4FE30FF11D3197808182171D
:1002D000C1F481E080938F003F5F309390003D3008
:1002E00099F48093900080919100909192000196F2
:1002F00090939200809391000E945B008093CE00C7
:1003000008952F5F20938F00089583B78B6083BF7C
:1003100089B7826089BF89EF8CBF12BE08952F9282
:100320003F924F925F926F927F928F929F92AF9285
:10033000BF92CF92DF92EF92FF920F931F93CF93D2
:10034000DF9380E00E94A0030E9485017894809151
:100350009100909192000E945B008093CE000E94D9
:1003600070000F2EFEEDEF2EF0E0FF2EF02DC701F6
:100370007E2C692ECC24DD24AA24BB246894A2F808
:100380000F2EFBE32F2EF02D0F2EF8ED4F2EF0E069
:100390005F2EF02D87010A5F1F4F0F2EF6E03F2ED4
:1003A000F02D0F2EFFE08F2E9924F02D1092D70004
:1003B000E701E72DF62DC60120B330E0082E02C07C
:1003C000359527950A94E2F7217021930196809341
:1003D000D7008630910581F780E00E94490088238C
:1003E00049F08091D20090E00196B5010E94690425
:1003F0008093D20083E00E944900882349F08091D5
:10040000D30090E00196B5010E9469048093D30067
:100410008091D2008130F1F40E944900882351F08C
:1004200080918E00873119F410928E0003C08F5F87
:1004300080938E0082E00E944900882359F08091C9
:100440008E00882321F487E180938E0003C08150C1
:1004500080938E008091D2008230F1F481E00E947E
:100460004900882351F080918D008B3319F410924C
:100470008D0003C08F5F80938D0082E00E94490051
:10048000882351F080918D00882319F420928D00EB
:1004900003C0815080938D008091D2008330F1F4AD
:1004A00081E00E944900882351F080918C008B33B9
:1004B00019F410928C0003C08F5F80938C0082E04F
:1004C0000E944900882351F080918C00882319F400
:1004D00020928C0003C0815080938C008091D300C7
:1004E000813009F048C084E00E944900882301F16E
:1004F00040918F002091CE0030E050919000C901D2
:10050000880F991F820F931FFC01EE0FFF1FEE0F44
:10051000FF1FED56FF4FE50FF11D319780818417C6
:1005200021F481E080938F0003C04F5F40938F00E0
:1005300085E00E9449008823F1F080918F0081308E
:10054000B9F48091CE0090E020919000FC01EE0F74
:10055000FF1FE80FF91FEE0FFF1FEE0FFF1FED56F5
:10056000FF4FE20FF11D3197808180938F0003C010
:10057000815080938F008091D3008230F9F484E021
:100580000E944900882351F0809190008F5F8093F2
:1005900090008D3019F481E08093900085E00E94F6
:1005A0004900882359F080919000813021F48CE03B
:1005B0008093900003C08150809390008091D3007D
:1005C0008330C9F584E00E944900882369F0809156
:1005D00091009091920001969093920080939100E7
:1005E0000E945B008093CE0085E00E944900882332
:1005F00011F1809191009091920001979093920057
:10060000809391000E945B008093CE0014C089917A
:100610008193C017D107D9F73092D7008091CF00CE
:100620009091D000B4010E945504009709F0BECE0D
:100630000E947000BBCEF201EACF1F920F920FB65C
:100640000F9211242F933F934F935F936F937F9358
:100650008F939F93AF93BF93EF93FF930E942101DA
:10066000FF91EF91BF91AF919F918F917F916F918A
:100670005F914F913F912F910F900FBE0F901F9060
:10068000189584B38F7084BBA99AA89882E08A9544
:10069000F1F700C0AA9A92E09A95F1F700C083B3EF
:1006A000807F92E09A95F1F700C0AA9895E09A951C
:1006B000F1F70000AA9A92E09A95F1F700C093B37F
:1006C00092E09A95F1F700C0AA9895E09A95F1F713
:1006D00000008823FCF2A99884B3806F84BB08953E
:1006E000282F22952F708F70662311F4A89801C0CF
:1006F000A89A92E09A95F1F700C0AA9A95B322952C
:10070000207F9F70922B95BB95E09A95F1F70000A2
:10071000AA9895E09A95F1F70000AA9A95B3829568
:10072000807F9F70892B85BB85E08A95F1F700005B
:10073000AA9895E09A95F1F700000E944103089568
:100740001F93182F8FEF96E7A1E081509040A040B3
:10075000E1F700C0000084B3806F84BBA29AA09A26
:10076000A19A85B38F7085BBAA98A998A89800C054
:1007700000C00000AA9AAD9A95E09A95F1F70000A2
:10078000AA98A5E0AA95F1F700000E94410388E22B
:1007900060E00E947003812F8C6060E00E94700313
:1007A0001F910895CF93DF93EC018881882339F05E
:1007B000219661E00E94700389918823D1F7DF912F
:1007C000CF910895EF92FF920F931F93DF93CF93F2
:1007D00000D000D00F92CDB7DEB77B01FE0131967D
:1007E00025E0DF011D922A95E9F7009761F0FE01EF
:1007F00036962AE030E0B9010E9469048293862F80
:10080000972F0097C1F7BFEFEB16BFEFFB0669F418
:100810002981222379F4FE01329600E010E00F5F77
:100820001F4F21912223D9F307C005E010E00E19D4
:100830001F0902C000E010E0992324F48DE261E07A
:100840000E9470030530110594F47E010894E11CA8
:10085000F11CE00EF11EF70181917F01805D61E0E6
:100860000E9470030F5F1F4F05301105A4F30F9016
:100870000F900F900F900F90CF91DF911F910F91DC
:10088000FF90EF900895843178F4623031F0633056
:1008900031F0613029F4806403C08C5E01C08C5A51
:1008A000806860E00E9470030895AA1BBB1B51E1A1
:1008B00007C0AA1FBB1FA617B70710F0A61BB70BD0
:1008C000881F991F5A95A9F780959095BC01CD0175
:1008D000089597FB092E07260AD077FD04D0E5DF9F
:1008E00006D000201AF4709561957F4F0895F6F7B1
:1008F000909581959F4F0895AEE0B0E0E2E8F4E076
:100900000C9434070D891E8986E08C831A83098331
:100910008FEF9FE79E838D839E01275E3F4FCE0121
:1009200001966F89788DA9010E949F04EF81F88557
:10093000E00FF11F10822E96E4E00C945007ACE01B
:10094000B0E0E5EAF4E00C9426076C011B018A0193
:10095000FC0117821682838181FFD1C12E01089488
:10096000411C511CF6019381F10193FD859193FF88
:1009700081911F01882309F4BEC1853239F493FDAA
:10098000859193FF81911F01853229F490E0B60192
:100990000E949C06E7CFEE24FF2420E02032B0F432
:1009A0008B3269F08C3228F4803251F0833271F44A
:1009B0000BC08D3239F0803349F421602CC02260A5
:1009C000246029C0286027C0206125C027FD2CC0D5
:1009D000382F30533A3098F426FF08C08E2D880FF8
:1009E000E82EEE0CEE0CE80EE30E15C08F2D880FEE
:1009F000F82EFF0CFF0CF80EF30E20620CC08E32A6
:100A000021F426FD78C1206406C08C3611F42068DC
:100A100002C0883649F4F10193FD859193FF8191DD
:100A20001F01882309F0BACF982F9554933018F0FE
:100A30009052933028F40C5F1F4FFFE3F9830DC0F1
:100A4000833631F0833771F0833509F060C022C0FE
:100A5000F801808189830E5F1F4F420171E0A72E4C
:100A6000B12C16C062E0662E712C600E711EF8016A
:100A70008080918026FF03C06E2D70E002C06FEF72
:100A80007FEFC4012C870E9491065C0183012C85B5
:100A90002F7717C052E0652E712C600E711EF80181
:100AA0008080918026FF03C06E2D70E002C06FEF42
:100AB0007FEFC4012C870E9486065C012C8520688C
:100AC000830123FD20C008C080E290E0B6012C879E
:100AD0000E949C06FA942C858F2D90E0A816B906EA
:100AE00098F311C0F40127FD859127FF81914F01F3
:100AF00090E0B6012C870E949C062C85F110FA9498
:100B00000894A108B108A114B10461F7F1C08436BA
:100B100011F0893649F527FF08C0F801608171811D
:100B2000828193810C5F1F4F09C0F8016081718140
:100B3000882777FD8095982F0E5F1F4F4FE6B42EC4
:100B4000B22297FF09C090958095709561957F4F6F
:100B50008F4F9F4FF0E8BF2AA2012AE030E00E94A9
:100B6000C806782E741845C0853731F43FEEB32E91
:100B7000B2222AE030E025C099EFB92EB2228F369A
:100B8000C1F0803720F4883509F0B5C00DC080373A
:100B900021F0883709F0AFC002C020E1B22AB4FECC
:100BA0000BC084E0B82A08C0B4FE09C0E6E0BE2A43
:100BB00006C028E030E005C020E130E002C020E1BE
:100BC00032E0B7FE08C0F8016081718182819381B3
:100BD0000C5F1F4F07C0F8016081718180E090E0D9
:100BE0000E5F1F4FA2010E94C806782E7418FFE7FF
:100BF000BF22B6FE0BC02EEFB2227E1438F4B4FE34
:100C000007C0B2FC05C08FEEB82202C0A72C01C0FD
:100C1000AE2C8B2D90E0B4FE0DC0FE01E70DF11D52
:100C20002081203319F4E9EEBE2209C0A394B2FE5C
:100C300006C004C086789070009709F0A3948B2CAE
:100C40009924B3FC14C0B0FE0FC0AF1428F4E72CF5
:100C5000EF0CEA18AF2C08C0E72C06C080E290E049
:100C6000B6010E949C06A394AF14C0F304C0AF1455
:100C700010F4FA1801C0FF2484FE0FC080E390E056
:100C8000B6010E949C0682FE1FC081FE03C088E55B
:100C900090E010C088E790E00DC0C40186789070A5
:100CA000009791F081FC02C080E201C08BE2B7FCAA
:100CB0008DE290E0B6010E949C0606C080E390E0C1
:100CC000B6010E949C06EA947E14C0F37A94F20165
:100CD000E70DF11D808190E0B6010E949C0677200F
:100CE000A9F706C080E290E0B6010E949C06FA9443
:100CF000FF20C1F737CEF6012681378102C02FEFE2
:100D00003FEFC9012C96E2E10C944207FC010590EB
:100D1000615070400110D8F7809590958E0F9F1FFD
:100D20000895FC016150704001900110D8F7809542
:100D300090958E0F9F1F08950F931F93CF93DF936E
:100D40008C01EB018B8181FF1BC082FF0DC02E81C6
:100D50003F818C819D812817390764F4E881F981EE
:100D60000193F983E88306C0E885F985802F09950A
:100D7000009731F48E819F8101969F838E8302C0FC
:100D80000FEF1FEFC801DF91CF911F910F910895D1
:100D9000FA01AA27283051F1203181F1E8946F93AC
:100DA0006E7F6E5F7F4F8F4F9F4FAF4FB1E03ED052
:100DB000B4E03CD0670F781F891F9A1FA11D680FF0
:100DC000791F8A1F911DA11D6A0F711D811D911D23
:100DD000A11D20D009F468943F912AE0269F112498
:100DE0003019305D3193DEF6CF010895462F4770FC
:100DF000405D4193B3E00FD0C9F7F6CF462F4F7057
:100E0000405D4A3318F0495D31FD4052419302D0B4
:100E1000A9F7EACFB4E0A69597958795779567955A
:100E2000BA95C9F700976105710508959B01AC015A
:100E30000A2E06945795479537952795BA95C9F781
:100E4000620F731F841F951FA01D08952F923F925C
:100E50004F925F926F927F928F929F92AF92BF92CA
:100E6000CF92DF92EF92FF920F931F93CF93DF9376
:100E7000CDB7DEB7CA1BDB0B0FB6F894DEBF0FBED3
:100E8000CDBF09942A88398848885F846E847D8420
:100E90008C849B84AA84B984C884DF80EE80FD8022
:100EA0000C811B81AA81B981CE0FD11D0FB6F89498
:0E0EB000DEBF0FBECDBFED010895F894FFCF59
:100EBE0054696D653A202020253032643A2530324F
:100ECE00643A2530326400446174653A202530322C
:100EDE00643A253032643A2530346400393B171CAD
:100EEE0002D1071F1C1F1E1F1E1F1F1E1F1E1F1F8E
:100EFE001D1F1E1F1E1F1F1E1F1E1F54696D653ACC
:100F0E0020202078783A78783A78780044617465B1
:0E0F1E003A2064643A6D6D3A79797979000071
:00000001FF
